{"abi":[{"type":"constructor","inputs":[{"name":"_token","type":"address","internalType":"address"},{"name":"_treasury","type":"address","internalType":"address"},{"name":"_signer","type":"address","internalType":"address"}],"stateMutability":"nonpayable"},{"type":"function","name":"claim","inputs":[{"name":"to","type":"address","internalType":"address"},{"name":"round","type":"string","internalType":"string"},{"name":"amount","type":"uint256","internalType":"uint256"},{"name":"salt","type":"string","internalType":"string"},{"name":"signature","type":"bytes","internalType":"bytes"}],"outputs":[],"stateMutability":"payable"},{"type":"function","name":"claimed","inputs":[{"name":"","type":"string","internalType":"string"},{"name":"","type":"address","internalType":"address"}],"outputs":[{"name":"","type":"bool","internalType":"bool"}],"stateMutability":"view"},{"type":"function","name":"claimed_amount","inputs":[{"name":"","type":"string","internalType":"string"},{"name":"","type":"address","internalType":"address"}],"outputs":[{"name":"","type":"uint256","internalType":"uint256"}],"stateMutability":"view"},{"type":"function","name":"eip712Domain","inputs":[],"outputs":[{"name":"fields","type":"bytes1","internalType":"bytes1"},{"name":"name","type":"string","internalType":"string"},{"name":"version","type":"string","internalType":"string"},{"name":"chainId","type":"uint256","internalType":"uint256"},{"name":"verifyingContract","type":"address","internalType":"address"},{"name":"salt","type":"bytes32","internalType":"bytes32"},{"name":"extensions","type":"uint256[]","internalType":"uint256[]"}],"stateMutability":"view"},{"type":"function","name":"isOpen","inputs":[{"name":"_r","type":"string","internalType":"string"}],"outputs":[{"name":"","type":"bool","internalType":"bool"}],"stateMutability":"view"},{"type":"function","name":"owner","inputs":[],"outputs":[{"name":"","type":"address","internalType":"address"}],"stateMutability":"view"},{"type":"function","name":"renounceOwnership","inputs":[],"outputs":[],"stateMutability":"nonpayable"},{"type":"function","name":"setOpenStatus","inputs":[{"name":"_r","type":"string","internalType":"string"},{"name":"_s1_open","type":"bool","internalType":"bool"}],"outputs":[],"stateMutability":"nonpayable"},{"type":"function","name":"setSigner","inputs":[{"name":"_signer","type":"address","internalType":"address"}],"outputs":[],"stateMutability":"nonpayable"},{"type":"function","name":"setTokenAddress","inputs":[{"name":"_token_address","type":"address","internalType":"address"}],"outputs":[],"stateMutability":"nonpayable"},{"type":"function","name":"setTreasuryAddress","inputs":[{"name":"_treasury_address","type":"address","internalType":"address"}],"outputs":[],"stateMutability":"nonpayable"},{"type":"function","name":"signer_address","inputs":[],"outputs":[{"name":"","type":"address","internalType":"address"}],"stateMutability":"view"},{"type":"function","name":"status","inputs":[{"name":"","type":"string","internalType":"string"}],"outputs":[{"name":"","type":"bool","internalType":"bool"}],"stateMutability":"view"},{"type":"function","name":"token_address","inputs":[],"outputs":[{"name":"","type":"address","internalType":"address"}],"stateMutability":"view"},{"type":"function","name":"transferOwnership","inputs":[{"name":"newOwner","type":"address","internalType":"address"}],"outputs":[],"stateMutability":"nonpayable"},{"type":"function","name":"treasury_address","inputs":[],"outputs":[{"name":"","type":"address","internalType":"address"}],"stateMutability":"view"},{"type":"event","name":"Claimed","inputs":[{"name":"account","type":"address","indexed":true,"internalType":"address"},{"name":"round","type":"string","indexed":true,"internalType":"string"},{"name":"amount","type":"uint256","indexed":false,"internalType":"uint256"}],"anonymous":false},{"type":"event","name":"EIP712DomainChanged","inputs":[],"anonymous":false},{"type":"event","name":"OwnershipTransferred","inputs":[{"name":"previousOwner","type":"address","indexed":true,"internalType":"address"},{"name":"newOwner","type":"address","indexed":true,"internalType":"address"}],"anonymous":false},{"type":"error","name":"ECDSAInvalidSignature","inputs":[]},{"type":"error","name":"ECDSAInvalidSignatureLength","inputs":[{"name":"length","type":"uint256","internalType":"uint256"}]},{"type":"error","name":"ECDSAInvalidSignatureS","inputs":[{"name":"s","type":"bytes32","internalType":"bytes32"}]},{"type":"error","name":"InvalidShortString","inputs":[]},{"type":"error","name":"OwnableInvalidOwner","inputs":[{"name":"owner","type":"address","internalType":"address"}]},{"type":"error","name":"OwnableUnauthorizedAccount","inputs":[{"name":"account","type":"address","internalType":"address"}]},{"type":"error","name":"StringTooLong","inputs":[{"name":"str","type":"string","internalType":"string"}]}],"bytecode":{"object":"0x61016060405234801561001157600080fd5b50604051611b60380380611b608339810160408190526100309161026f565b604080518082018252600b81526a047616d6541697244726f760ac1b602080830191909152825180840190935260058352640312e302e360dc1b9083015290338061009657604051631e4fbdf760e01b8152600060048201526024015b60405180910390fd5b61009f81610192565b506100ab8260016101e2565b610120526100ba8160026101e2565b61014052815160208084019190912060e052815190820120610100524660a05261014760e05161010051604080517f8b73c3c69bb8fe3d512ecc4cf759cc79239f7b179b0ffacaa9a75d522b39400f60208201529081019290925260608201524660808201523060a082015260009060c00160405160208183030381529060405280519060200120905090565b60805250503060c052600380546001600160a01b039485166001600160a01b031991821617909155600480549385169382169390931790925560058054919093169116179055610485565b600080546001600160a01b038381166001600160a01b0319831681178455604051919092169283917f8be0079c531659141344cd1fd0a4f28419497f9722a3daafe3b4186f6b6457e09190a35050565b60006020835110156101fe576101f783610215565b905061020f565b816102098482610353565b5060ff90505b92915050565b600080829050601f81511115610240578260405163305a27a960e01b815260040161008d9190610412565b805161024b82610461565b179392505050565b80516001600160a01b038116811461026a57600080fd5b919050565b60008060006060848603121561028457600080fd5b61028d84610253565b925061029b60208501610253565b91506102a960408501610253565b90509250925092565b634e487b7160e01b600052604160045260246000fd5b600181811c908216806102dc57607f821691505b6020821081036102fc57634e487b7160e01b600052602260045260246000fd5b50919050565b601f82111561034e576000816000526020600020601f850160051c8101602086101561032b5750805b601f850160051c820191505b8181101561034a57828155600101610337565b5050505b505050565b81516001600160401b0381111561036c5761036c6102b2565b6103808161037a84546102c8565b84610302565b602080601f8311600181146103b5576000841561039d5750858301515b600019600386901b1c1916600185901b17855561034a565b600085815260208120601f198616915b828110156103e4578886015182559484019460019091019084016103c5565b50858210156104025787850151600019600388901b60f8161c191681555b5050505050600190811b01905550565b60006020808352835180602085015260005b8181101561044057858101830151858201604001528201610424565b506000604082860101526040601f19601f8301168501019250505092915050565b805160208083015191908110156102fc5760001960209190910360031b1b16919050565b60805160a05160c05160e0516101005161012051610140516116816104df6000396000610d5901526000610d2701526000610f6101526000610f3901526000610e9401526000610ebe01526000610ee801526116816000f3fe6080604052600436106100f35760003560e01c80637e93085f1161008a578063a367e27d11610059578063a367e27d146102c0578063d1d2bdd4146102e0578063e8ca64f414610336578063f2fde38b1461037157600080fd5b80637e93085f1461023a57806384b0196e1461025a5780638c8e8fee146102825780638da5cb5b146102a257600080fd5b80636c19e783116100c65780636c19e783146101ad578063715018a6146101cd57806373c8e33a146101e257806378f385781461021a57600080fd5b80630d2cbd56146100f857806326a4e8d21461010d5780632ed256201461012d5780636605bfda1461018d575b600080fd5b61010b6101063660046112b1565b610391565b005b34801561011957600080fd5b5061010b610128366004611386565b61071a565b34801561013957600080fd5b506101786101483660046113a8565b81516020818401810180516007825292820194820194909420919093529091526000908152604090205460ff1681565b60405190151581526020015b60405180910390f35b34801561019957600080fd5b5061010b6101a8366004611386565b610744565b3480156101b957600080fd5b5061010b6101c8366004611386565b61076e565b3480156101d957600080fd5b5061010b610798565b3480156101ee57600080fd5b50600554610202906001600160a01b031681565b6040516001600160a01b039091168152602001610184565b34801561022657600080fd5b5061010b610235366004611404565b6107ac565b34801561024657600080fd5b50610178610255366004611456565b610989565b34801561026657600080fd5b5061026f610b5c565b60405161018497969594939291906114e3565b34801561028e57600080fd5b50600354610202906001600160a01b031681565b3480156102ae57600080fd5b506000546001600160a01b0316610202565b3480156102cc57600080fd5b50600454610202906001600160a01b031681565b3480156102ec57600080fd5b506103286102fb3660046113a8565b81516020818401810180516008825292820194820194909420919093529091526000908152604090205481565b604051908152602001610184565b34801561034257600080fd5b50610178610351366004611456565b805160208183018101805160068252928201919093012091525460ff1681565b34801561037d57600080fd5b5061010b61038c366004611386565b610ba2565b846006816040516103a2919061157c565b9081526040519081900360200190205460ff166103fe5760405162461bcd60e51b815260206004820152601560248201527423b0b6b2a0b4b9323937b81d103737ba1037b832b760591b60448201526064015b60405180910390fd5b336001600160a01b038816146104625760405162461bcd60e51b815260206004820152602360248201527f47616d6541697264726f703a2063616e206f6e6c7920636c61696d20746f207360448201526232b63360e91b60648201526084016103f5565b3233146104b15760405162461bcd60e51b815260206004820152601a60248201527f47616d6541697264726f703a20636f6e74726163742063616c6c00000000000060448201526064016103f5565b6007866040516104c1919061157c565b9081526040805160209281900383019020336000908152925290205460ff161561052d5760405162461bcd60e51b815260206004820152601c60248201527f47616d6541697264726f703a20616c726561647920636c61696d65640000000060448201526064016103f5565b61054361053c86888733610be0565b8484610c42565b61058f5760405162461bcd60e51b815260206004820152601e60248201527f47616d6541697264726f703a20496e76616c6964207369676e6174757265000060448201526064016103f5565b600354600480546040516323b872dd60e01b81526001600160a01b039182169281019290925233602483015260448201889052909116906323b872dd906064016020604051808303816000875af11580156105ee573d6000803e3d6000fd5b505050506040513d601f19601f820116820180604052508101906106129190611598565b61065e5760405162461bcd60e51b815260206004820152601c60248201527f47616d6541697264726f703a207472616e73666572206661696c65640000000060448201526064016103f5565b6001600787604051610670919061157c565b908152604080516020928190038301812033600090815293529120805460ff19169215159290921790915585906008906106ab90899061157c565b908152604080519182900360209081018320336000908152915220919091556106d590879061157c565b6040519081900381208682529033907f9d2f14df77ba038ff6f9ba99bbdcfbc30f1650b9574e3b7bbae993df15a92f309060200160405180910390a350505050505050565b610722610ca3565b600380546001600160a01b0319166001600160a01b0392909216919091179055565b61074c610ca3565b600480546001600160a01b0319166001600160a01b0392909216919091179055565b610776610ca3565b600580546001600160a01b0319166001600160a01b0392909216919091179055565b6107a0610ca3565b6107aa6000610cd0565b565b6107b4610ca3565b60405161733160f01b6020820152829060220160405160208183030381529060405280519060200120816040516020016107ee919061157c565b60405160208183030381529060405280519060200120148061085b575060405161399960f11b60208201526022016040516020818303038152906040528051906020012081604051602001610843919061157c565b60405160208183030381529060405280519060200120145b806108b1575060405161733360f01b60208201526022016040516020818303038152906040528051906020012081604051602001610899919061157c565b60405160208183030381529060405280519060200120145b806109075750604051611ccd60f21b602082015260220160405160208183030381529060405280519060200120816040516020016108ef919061157c565b60405160208183030381529060405280519060200120145b6109535760405162461bcd60e51b815260206004820152601f60248201527f47616d6541697264726f703a20696e76616c696420726f756e64206e616d650060448201526064016103f5565b81600684604051610964919061157c565b908152604051908190036020019020805491151560ff19909216919091179055505050565b6000816040516020016109a49061733160f01b815260020190565b60405160208183030381529060405280519060200120816040516020016109cb919061157c565b604051602081830303815290604052805190602001201480610a38575060405161399960f11b60208201526022016040516020818303038152906040528051906020012081604051602001610a20919061157c565b60405160208183030381529060405280519060200120145b80610a8e575060405161733360f01b60208201526022016040516020818303038152906040528051906020012081604051602001610a76919061157c565b60405160208183030381529060405280519060200120145b80610ae45750604051611ccd60f21b60208201526022016040516020818303038152906040528051906020012081604051602001610acc919061157c565b60405160208183030381529060405280519060200120145b610b305760405162461bcd60e51b815260206004820152601f60248201527f47616d6541697264726f703a20696e76616c696420726f756e64206e616d650060448201526064016103f5565b600683604051610b40919061157c565b9081526040519081900360200190205460ff1691505b50919050565b600060608060008060006060610b70610d20565b610b78610d52565b60408051600080825260208201909252600f60f81b9b939a50919850469750309650945092509050565b610baa610ca3565b6001600160a01b038116610bd457604051631e4fbdf760e01b8152600060048201526024016103f5565b610bdd81610cd0565b50565b6000610c397f2b3a1c77af4980167a491c3c1481f04f87aa91b2c67be851d7ac953991b0775586868686604051602001610c1e9594939291906115b5565b60405160208183030381529060405280519060200120610d7f565b95945050505050565b600554604080516020601f85018190048102820181019092528381526000926001600160a01b031691610c919187918790879081908401838280828437600092019190915250610db292505050565b6001600160a01b031614949350505050565b6000546001600160a01b031633146107aa5760405163118cdaa760e01b81523360048201526024016103f5565b600080546001600160a01b038381166001600160a01b0319831681178455604051919092169283917f8be0079c531659141344cd1fd0a4f28419497f9722a3daafe3b4186f6b6457e09190a35050565b6060610d4d7f00000000000000000000000000000000000000000000000000000000000000006001610ddc565b905090565b6060610d4d7f00000000000000000000000000000000000000000000000000000000000000006002610ddc565b6000610dac610d8c610e87565b8360405161190160f01b8152600281019290925260228201526042902090565b92915050565b600080600080610dc28686610fb2565b925092509250610dd28282610fff565b5090949350505050565b606060ff8314610df657610def836110bc565b9050610dac565b818054610e0290611601565b80601f0160208091040260200160405190810160405280929190818152602001828054610e2e90611601565b8015610e7b5780601f10610e5057610100808354040283529160200191610e7b565b820191906000526020600020905b815481529060010190602001808311610e5e57829003601f168201915b50505050509050610dac565b6000306001600160a01b037f000000000000000000000000000000000000000000000000000000000000000016148015610ee057507f000000000000000000000000000000000000000000000000000000000000000046145b15610f0a57507f000000000000000000000000000000000000000000000000000000000000000090565b610d4d604080517f8b73c3c69bb8fe3d512ecc4cf759cc79239f7b179b0ffacaa9a75d522b39400f60208201527f0000000000000000000000000000000000000000000000000000000000000000918101919091527f000000000000000000000000000000000000000000000000000000000000000060608201524660808201523060a082015260009060c00160405160208183030381529060405280519060200120905090565b60008060008351604103610fec5760208401516040850151606086015160001a610fde888285856110fb565b955095509550505050610ff8565b50508151600091506002905b9250925092565b600082600381111561101357611013611635565b0361101c575050565b600182600381111561103057611030611635565b0361104e5760405163f645eedf60e01b815260040160405180910390fd5b600282600381111561106257611062611635565b036110835760405163fce698f760e01b8152600481018290526024016103f5565b600382600381111561109757611097611635565b036110b8576040516335e2f38360e21b8152600481018290526024016103f5565b5050565b606060006110c9836111ca565b604080516020808252818301909252919250600091906020820181803683375050509182525060208101929092525090565b600080807f7fffffffffffffffffffffffffffffff5d576e7357a4501ddfe92f46681b20a084111561113657506000915060039050826111c0565b604080516000808252602082018084528a905260ff891692820192909252606081018790526080810186905260019060a0016020604051602081039080840390855afa15801561118a573d6000803e3d6000fd5b5050604051601f1901519150506001600160a01b0381166111b6575060009250600191508290506111c0565b9250600091508190505b9450945094915050565b600060ff8216601f811115610dac57604051632cd44ac360e21b815260040160405180910390fd5b80356001600160a01b038116811461120957600080fd5b919050565b634e487b7160e01b600052604160045260246000fd5b600082601f83011261123557600080fd5b813567ffffffffffffffff808211156112505761125061120e565b604051601f8301601f19908116603f011681019082821181831017156112785761127861120e565b8160405283815286602085880101111561129157600080fd5b836020870160208301376000602085830101528094505050505092915050565b60008060008060008060a087890312156112ca57600080fd5b6112d3876111f2565b9550602087013567ffffffffffffffff808211156112f057600080fd5b6112fc8a838b01611224565b965060408901359550606089013591508082111561131957600080fd5b6113258a838b01611224565b9450608089013591508082111561133b57600080fd5b818901915089601f83011261134f57600080fd5b81358181111561135e57600080fd5b8a602082850101111561137057600080fd5b6020830194508093505050509295509295509295565b60006020828403121561139857600080fd5b6113a1826111f2565b9392505050565b600080604083850312156113bb57600080fd5b823567ffffffffffffffff8111156113d257600080fd5b6113de85828601611224565b9250506113ed602084016111f2565b90509250929050565b8015158114610bdd57600080fd5b6000806040838503121561141757600080fd5b823567ffffffffffffffff81111561142e57600080fd5b61143a85828601611224565b925050602083013561144b816113f6565b809150509250929050565b60006020828403121561146857600080fd5b813567ffffffffffffffff81111561147f57600080fd5b61148b84828501611224565b949350505050565b60005b838110156114ae578181015183820152602001611496565b50506000910152565b600081518084526114cf816020860160208601611493565b601f01601f19169290920160200192915050565b60ff60f81b881681526000602060e0602084015261150460e084018a6114b7565b8381036040850152611516818a6114b7565b606085018990526001600160a01b038816608086015260a0850187905284810360c08601528551808252602080880193509091019060005b8181101561156a5783518352928401929184019160010161154e565b50909c9b505050505050505050505050565b6000825161158e818460208701611493565b9190910192915050565b6000602082840312156115aa57600080fd5b81516113a1816113f6565b85815284602082015260a0604082015260006115d460a08301866114b7565b82810360608401526115e681866114b7565b91505060018060a01b03831660808301529695505050505050565b600181811c9082168061161557607f821691505b602082108103610b5657634e487b7160e01b600052602260045260246000fd5b634e487b7160e01b600052602160045260246000fdfea2646970667358221220eb15b4ae175dc272f81e186b99dc06c340553c8b16446052f8bf4d8f675b7c8c64736f6c63430008190033","linkReferences":{}},"methodIdentifiers":{"claim(address,string,uint256,string,bytes)":"0d2cbd56","claimed(string,address)":"2ed25620","claimed_amount(string,address)":"d1d2bdd4","eip712Domain()":"84b0196e","isOpen(string)":"7e93085f","owner()":"8da5cb5b","renounceOwnership()":"715018a6","setOpenStatus(string,bool)":"78f38578","setSigner(address)":"6c19e783","setTokenAddress(address)":"26a4e8d2","setTreasuryAddress(address)":"6605bfda","signer_address()":"73c8e33a","status(string)":"e8ca64f4","token_address()":"8c8e8fee","transferOwnership(address)":"f2fde38b","treasury_address()":"a367e27d"},"id":13}